{
  "_format": "hh-sol-artifact-1",
  "contractName": "Activities",
  "sourceName": "contracts/main/partnersAgreement/contracts/Activities.sol",
  "abi": [
    {
      "inputs": [
        {
          "internalType": "address",
          "name": "_pa",
          "type": "address"
        }
      ],
      "stateMutability": "nonpayable",
      "type": "constructor"
    },
    {
      "anonymous": false,
      "inputs": [
        {
          "indexed": false,
          "internalType": "uint256",
          "name": "_id",
          "type": "uint256"
        },
        {
          "indexed": false,
          "internalType": "enum Activities.Type",
          "name": "_type",
          "type": "uint8"
        },
        {
          "indexed": false,
          "internalType": "string",
          "name": "_uri",
          "type": "string"
        }
      ],
      "name": "ActivityCreated",
      "type": "event"
    },
    {
      "anonymous": false,
      "inputs": [
        {
          "indexed": false,
          "internalType": "uint256",
          "name": "_id",
          "type": "uint256"
        },
        {
          "indexed": false,
          "internalType": "enum Activities.Type",
          "name": "_type",
          "type": "uint8"
        },
        {
          "indexed": false,
          "internalType": "string",
          "name": "_uri",
          "type": "string"
        }
      ],
      "name": "ActivityFinalized",
      "type": "event"
    },
    {
      "anonymous": false,
      "inputs": [
        {
          "indexed": true,
          "internalType": "address",
          "name": "owner",
          "type": "address"
        },
        {
          "indexed": true,
          "internalType": "address",
          "name": "approved",
          "type": "address"
        },
        {
          "indexed": true,
          "internalType": "uint256",
          "name": "tokenId",
          "type": "uint256"
        }
      ],
      "name": "Approval",
      "type": "event"
    },
    {
      "anonymous": false,
      "inputs": [
        {
          "indexed": true,
          "internalType": "address",
          "name": "owner",
          "type": "address"
        },
        {
          "indexed": true,
          "internalType": "address",
          "name": "operator",
          "type": "address"
        },
        {
          "indexed": false,
          "internalType": "bool",
          "name": "approved",
          "type": "bool"
        }
      ],
      "name": "ApprovalForAll",
      "type": "event"
    },
    {
      "anonymous": false,
      "inputs": [
        {
          "indexed": false,
          "internalType": "uint256",
          "name": "_activityId",
          "type": "uint256"
        },
        {
          "indexed": false,
          "internalType": "uint256",
          "name": "_taskId",
          "type": "uint256"
        },
        {
          "indexed": false,
          "internalType": "address",
          "name": "_taker",
          "type": "address"
        }
      ],
      "name": "TaskFinalized",
      "type": "event"
    },
    {
      "anonymous": false,
      "inputs": [
        {
          "indexed": false,
          "internalType": "uint256",
          "name": "_activityId",
          "type": "uint256"
        },
        {
          "indexed": false,
          "internalType": "uint256",
          "name": "_taskId",
          "type": "uint256"
        },
        {
          "indexed": false,
          "internalType": "address",
          "name": "_taker",
          "type": "address"
        }
      ],
      "name": "TaskTaken",
      "type": "event"
    },
    {
      "anonymous": false,
      "inputs": [
        {
          "indexed": true,
          "internalType": "address",
          "name": "from",
          "type": "address"
        },
        {
          "indexed": true,
          "internalType": "address",
          "name": "to",
          "type": "address"
        },
        {
          "indexed": true,
          "internalType": "uint256",
          "name": "tokenId",
          "type": "uint256"
        }
      ],
      "name": "Transfer",
      "type": "event"
    },
    {
      "inputs": [
        {
          "internalType": "uint256",
          "name": "",
          "type": "uint256"
        }
      ],
      "name": "activityToTask",
      "outputs": [
        {
          "internalType": "uint256",
          "name": "",
          "type": "uint256"
        }
      ],
      "stateMutability": "view",
      "type": "function"
    },
    {
      "inputs": [
        {
          "internalType": "address",
          "name": "to",
          "type": "address"
        },
        {
          "internalType": "uint256",
          "name": "tokenId",
          "type": "uint256"
        }
      ],
      "name": "approve",
      "outputs": [],
      "stateMutability": "nonpayable",
      "type": "function"
    },
    {
      "inputs": [
        {
          "internalType": "address",
          "name": "owner",
          "type": "address"
        }
      ],
      "name": "balanceOf",
      "outputs": [
        {
          "internalType": "uint256",
          "name": "",
          "type": "uint256"
        }
      ],
      "stateMutability": "view",
      "type": "function"
    },
    {
      "inputs": [],
      "name": "baseURI",
      "outputs": [
        {
          "internalType": "string",
          "name": "",
          "type": "string"
        }
      ],
      "stateMutability": "view",
      "type": "function"
    },
    {
      "inputs": [
        {
          "internalType": "uint256",
          "name": "_type",
          "type": "uint256"
        },
        {
          "internalType": "string",
          "name": "_uri",
          "type": "string"
        }
      ],
      "name": "createActivity",
      "outputs": [],
      "stateMutability": "nonpayable",
      "type": "function"
    },
    {
      "inputs": [
        {
          "internalType": "string",
          "name": "_uri",
          "type": "string"
        },
        {
          "internalType": "address",
          "name": "_creator",
          "type": "address"
        }
      ],
      "name": "createTask",
      "outputs": [],
      "stateMutability": "nonpayable",
      "type": "function"
    },
    {
      "inputs": [
        {
          "internalType": "uint256",
          "name": "_id",
          "type": "uint256"
        },
        {
          "internalType": "string",
          "name": "_uri",
          "type": "string"
        }
      ],
      "name": "finalizeActivity",
      "outputs": [],
      "stateMutability": "nonpayable",
      "type": "function"
    },
    {
      "inputs": [
        {
          "internalType": "uint256",
          "name": "_activityId",
          "type": "uint256"
        },
        {
          "internalType": "address",
          "name": "_taker",
          "type": "address"
        }
      ],
      "name": "finilizeTask",
      "outputs": [],
      "stateMutability": "nonpayable",
      "type": "function"
    },
    {
      "inputs": [
        {
          "internalType": "uint256",
          "name": "_type",
          "type": "uint256"
        }
      ],
      "name": "getActivitiesByType",
      "outputs": [
        {
          "internalType": "uint256[]",
          "name": "",
          "type": "uint256[]"
        }
      ],
      "stateMutability": "view",
      "type": "function"
    },
    {
      "inputs": [
        {
          "internalType": "uint256",
          "name": "tokenId",
          "type": "uint256"
        }
      ],
      "name": "getApproved",
      "outputs": [
        {
          "internalType": "address",
          "name": "",
          "type": "address"
        }
      ],
      "stateMutability": "view",
      "type": "function"
    },
    {
      "inputs": [
        {
          "internalType": "uint256",
          "name": "_activityId",
          "type": "uint256"
        }
      ],
      "name": "getTaskByActivityId",
      "outputs": [
        {
          "components": [
            {
              "internalType": "uint256",
              "name": "activityId",
              "type": "uint256"
            },
            {
              "internalType": "uint256",
              "name": "createdOn",
              "type": "uint256"
            },
            {
              "internalType": "enum Activities.TaskStatus",
              "name": "status",
              "type": "uint8"
            },
            {
              "internalType": "address",
              "name": "creator",
              "type": "address"
            },
            {
              "internalType": "address",
              "name": "taker",
              "type": "address"
            }
          ],
          "internalType": "struct Activities.Task",
          "name": "",
          "type": "tuple"
        }
      ],
      "stateMutability": "view",
      "type": "function"
    },
    {
      "inputs": [
        {
          "internalType": "uint256",
          "name": "",
          "type": "uint256"
        }
      ],
      "name": "idTypes",
      "outputs": [
        {
          "internalType": "enum Activities.Type",
          "name": "",
          "type": "uint8"
        }
      ],
      "stateMutability": "view",
      "type": "function"
    },
    {
      "inputs": [
        {
          "internalType": "address",
          "name": "owner",
          "type": "address"
        },
        {
          "internalType": "address",
          "name": "operator",
          "type": "address"
        }
      ],
      "name": "isApprovedForAll",
      "outputs": [
        {
          "internalType": "bool",
          "name": "",
          "type": "bool"
        }
      ],
      "stateMutability": "view",
      "type": "function"
    },
    {
      "inputs": [
        {
          "internalType": "uint256",
          "name": "",
          "type": "uint256"
        }
      ],
      "name": "isFinalized",
      "outputs": [
        {
          "internalType": "bool",
          "name": "",
          "type": "bool"
        }
      ],
      "stateMutability": "view",
      "type": "function"
    },
    {
      "inputs": [],
      "name": "name",
      "outputs": [
        {
          "internalType": "string",
          "name": "",
          "type": "string"
        }
      ],
      "stateMutability": "view",
      "type": "function"
    },
    {
      "inputs": [
        {
          "internalType": "uint256",
          "name": "tokenId",
          "type": "uint256"
        }
      ],
      "name": "ownerOf",
      "outputs": [
        {
          "internalType": "address",
          "name": "",
          "type": "address"
        }
      ],
      "stateMutability": "view",
      "type": "function"
    },
    {
      "inputs": [],
      "name": "partnersAgreement",
      "outputs": [
        {
          "internalType": "address",
          "name": "",
          "type": "address"
        }
      ],
      "stateMutability": "view",
      "type": "function"
    },
    {
      "inputs": [
        {
          "internalType": "address",
          "name": "from",
          "type": "address"
        },
        {
          "internalType": "address",
          "name": "to",
          "type": "address"
        },
        {
          "internalType": "uint256",
          "name": "tokenId",
          "type": "uint256"
        }
      ],
      "name": "safeTransferFrom",
      "outputs": [],
      "stateMutability": "nonpayable",
      "type": "function"
    },
    {
      "inputs": [
        {
          "internalType": "address",
          "name": "from",
          "type": "address"
        },
        {
          "internalType": "address",
          "name": "to",
          "type": "address"
        },
        {
          "internalType": "uint256",
          "name": "tokenId",
          "type": "uint256"
        },
        {
          "internalType": "bytes",
          "name": "_data",
          "type": "bytes"
        }
      ],
      "name": "safeTransferFrom",
      "outputs": [],
      "stateMutability": "nonpayable",
      "type": "function"
    },
    {
      "inputs": [
        {
          "internalType": "address",
          "name": "operator",
          "type": "address"
        },
        {
          "internalType": "bool",
          "name": "approved",
          "type": "bool"
        }
      ],
      "name": "setApprovalForAll",
      "outputs": [],
      "stateMutability": "nonpayable",
      "type": "function"
    },
    {
      "inputs": [
        {
          "internalType": "bytes4",
          "name": "interfaceId",
          "type": "bytes4"
        }
      ],
      "name": "supportsInterface",
      "outputs": [
        {
          "internalType": "bool",
          "name": "",
          "type": "bool"
        }
      ],
      "stateMutability": "view",
      "type": "function"
    },
    {
      "inputs": [],
      "name": "symbol",
      "outputs": [
        {
          "internalType": "string",
          "name": "",
          "type": "string"
        }
      ],
      "stateMutability": "view",
      "type": "function"
    },
    {
      "inputs": [
        {
          "internalType": "uint256",
          "name": "_activityId",
          "type": "uint256"
        },
        {
          "internalType": "address",
          "name": "_taker",
          "type": "address"
        }
      ],
      "name": "takeTask",
      "outputs": [],
      "stateMutability": "nonpayable",
      "type": "function"
    },
    {
      "inputs": [
        {
          "internalType": "uint256",
          "name": "",
          "type": "uint256"
        }
      ],
      "name": "tasks",
      "outputs": [
        {
          "internalType": "uint256",
          "name": "activityId",
          "type": "uint256"
        },
        {
          "internalType": "uint256",
          "name": "createdOn",
          "type": "uint256"
        },
        {
          "internalType": "enum Activities.TaskStatus",
          "name": "status",
          "type": "uint8"
        },
        {
          "internalType": "address",
          "name": "creator",
          "type": "address"
        },
        {
          "internalType": "address",
          "name": "taker",
          "type": "address"
        }
      ],
      "stateMutability": "view",
      "type": "function"
    },
    {
      "inputs": [
        {
          "internalType": "uint256",
          "name": "index",
          "type": "uint256"
        }
      ],
      "name": "tokenByIndex",
      "outputs": [
        {
          "internalType": "uint256",
          "name": "",
          "type": "uint256"
        }
      ],
      "stateMutability": "view",
      "type": "function"
    },
    {
      "inputs": [
        {
          "internalType": "address",
          "name": "owner",
          "type": "address"
        },
        {
          "internalType": "uint256",
          "name": "index",
          "type": "uint256"
        }
      ],
      "name": "tokenOfOwnerByIndex",
      "outputs": [
        {
          "internalType": "uint256",
          "name": "",
          "type": "uint256"
        }
      ],
      "stateMutability": "view",
      "type": "function"
    },
    {
      "inputs": [
        {
          "internalType": "uint256",
          "name": "tokenId",
          "type": "uint256"
        }
      ],
      "name": "tokenURI",
      "outputs": [
        {
          "internalType": "string",
          "name": "",
          "type": "string"
        }
      ],
      "stateMutability": "view",
      "type": "function"
    },
    {
      "inputs": [],
      "name": "totalSupply",
      "outputs": [
        {
          "internalType": "uint256",
          "name": "",
          "type": "uint256"
        }
      ],
      "stateMutability": "view",
      "type": "function"
    },
    {
      "inputs": [
        {
          "internalType": "address",
          "name": "from",
          "type": "address"
        },
        {
          "internalType": "address",
          "name": "to",
          "type": "address"
        },
        {
          "internalType": "uint256",
          "name": "tokenId",
          "type": "uint256"
        }
      ],
      "name": "transferFrom",
      "outputs": [],
      "stateMutability": "nonpayable",
      "type": "function"
    }
  ],
  "bytecode": "0x60806040523480156200001157600080fd5b5060405162002f5038038062002f50833981016040819052620000349162000252565b6040518060400160405280600381526020016242616d60e81b8152506040518060400160405280600381526020016242414d60e81b815250620000846301ffc9a760e01b6200015b60201b60201c565b815162000099906006906020850190620001ad565b508051620000af906007906020840190620001ad565b50620000cb6380ac58cd60e01b6001600160e01b036200015b16565b620000e6635b5e139f60e01b6001600160e01b036200015b16565b6200010163780e9d6360e01b6001600160e01b036200015b16565b50506001600160a01b038116620001355760405162461bcd60e51b81526004016200012c90620002b9565b60405180910390fd5b600a80546001600160a01b0319166001600160a01b0392909216919091179055620002e0565b6001600160e01b03198082161415620001885760405162461bcd60e51b81526004016200012c9062000282565b6001600160e01b0319166000908152602081905260409020805460ff19166001179055565b828054600181600116156101000203166002900490600052602060002090601f016020900481019282601f10620001f057805160ff191683800117855562000220565b8280016001018555821562000220579182015b828111156200022057825182559160200191906001019062000203565b506200022e92915062000232565b5090565b6200024f91905b808211156200022e576000815560010162000239565b90565b60006020828403121562000264578081fd5b81516001600160a01b03811681146200027b578182fd5b9392505050565b6020808252601c908201527f4552433136353a20696e76616c696420696e7465726661636520696400000000604082015260600190565b6020808252600d908201526c6e6f205041206164647265737360981b604082015260600190565b612c6080620002f06000396000f3fe608060405234801561001057600080fd5b50600436106101cf5760003560e01c80636352211e1161010457806395d89b41116100a2578063c87b56dd11610071578063c87b56dd146103e2578063d7c7bfe8146103f5578063e985e9c514610408578063f7b7f88d1461041b576101cf565b806395d89b41146103a1578063a22cb465146103a9578063b843b0e7146103bc578063b88d4fde146103cf576101cf565b806370a08231116100de57806370a082311461033757806371a244b31461034a57806381ad1ef91461035d5780638d9776721461037d576101cf565b80636352211e146102fc5780636afeba8d1461030f5780636c0360eb1461032f576101cf565b80632eb5408f1161017157806342842e0e1161014b57806342842e0e146102b0578063436b3c28146102c35780634f6ccce7146102d657806362fe024a146102e9576101cf565b80632eb5408f146102825780632f745c591461028a57806333727c4d1461029d576101cf565b8063081812fc116101ad578063081812fc14610227578063095ea7b31461024757806318160ddd1461025a57806323b872dd1461026f576101cf565b806301b980de146101d457806301ffc9a7146101e957806306fdde0314610212575b600080fd5b6101e76101e236600461223c565b61043b565b005b6101fc6101f73660046121a8565b6105c9565b60405161020991906123c8565b60405180910390f35b61021a6105ec565b60405161020991906123e6565b61023a610235366004612224565b610683565b604051610209919061231a565b6101e761025536600461217e565b6106c6565b61026261075e565b6040516102099190612ac7565b6101e761027d36600461209b565b61076f565b61023a6107a7565b61026261029836600461217e565b6107b6565b6101fc6102ab366004612224565b6107e7565b6101e76102be36600461209b565b6107fc565b6102626102d1366004612224565b610817565b6102626102e4366004612224565b610829565b6101e76102f736600461225f565b610845565b61023a61030a366004612224565b610913565b61032261031d366004612224565b610941565b6040516102099190612a75565b61021a610a2a565b61026261034536600461204c565b610a8b565b6101e76103583660046121e0565b610ad4565b61037061036b366004612224565b610c65565b60405161020991906123d3565b61039061038b366004612224565b610c7a565b604051610209959493929190612b20565b61021a610cc7565b6101e76103b7366004612143565b610d28565b6101e76103ca36600461223c565b610df6565b6101e76103dd3660046120db565b610fcb565b61021a6103f0366004612224565b61100a565b6101e761040336600461225f565b611150565b6101fc610416366004612067565b61125b565b61042e610429366004612224565b611289565b6040516102099190612384565b600a546001600160a01b0316331461046e5760405162461bcd60e51b815260040161046590612712565b60405180910390fd5b60016000838152600b602052604090205460ff16600381111561048d57fe5b146104aa5760405162461bcd60e51b81526004016104659061299c565b6000828152600d602052604081205490600e82815481106104c757fe5b60009182526020909120600260049092020181015460ff16908111156104e957fe5b146105065760405162461bcd60e51b815260040161046590612584565b81600e828154811061051457fe5b906000526020600020906004020160030160006101000a8154816001600160a01b0302191690836001600160a01b031602179055506001600e828154811061055857fe5b906000526020600020906004020160020160006101000a81548160ff0219169083600281111561058457fe5b02179055507f196fa3d9e6d88d51f193965903f96de5e59f5e704fdb540a72dbc56a04e567468382846040516105bc93929190612b01565b60405180910390a1505050565b6001600160e01b0319811660009081526020819052604090205460ff165b919050565b60068054604080516020601f60026000196101006001881615020190951694909404938401819004810282018101909252828152606093909290918301828280156106785780601f1061064d57610100808354040283529160200191610678565b820191906000526020600020905b81548152906001019060200180831161065b57829003601f168201915b505050505090505b90565b600061068e826113ff565b6106aa5760405162461bcd60e51b8152600401610465906127a9565b506000908152600460205260409020546001600160a01b031690565b60006106d182610913565b9050806001600160a01b0316836001600160a01b031614156107055760405162461bcd60e51b8152600401610465906128f9565b806001600160a01b0316610717611412565b6001600160a01b03161480610733575061073381610416611412565b61074f5760405162461bcd60e51b81526004016104659061263c565b6107598383611416565b505050565b600061076a6002611484565b905090565b61078061077a611412565b8261148f565b61079c5760405162461bcd60e51b8152600401610465906129c8565b610759838383611514565b600a546001600160a01b031681565b6001600160a01b03821660009081526001602052604081206107de908363ffffffff61163416565b90505b92915050565b600f6020526000908152604090205460ff1681565b61075983838360405180602001604052806000815250610fcb565b600d6020526000908152604090205481565b60008061083d60028463ffffffff61164016565b509392505050565b600a546001600160a01b0316331461086f5760405162461bcd60e51b815260040161046590612712565b600082600381111561087d57fe5b600381111561088857fe5b14156108a65760405162461bcd60e51b8152600401610465906124e8565b60018260038111156108b457fe5b60038111156108bf57fe5b14156108dd5760405162461bcd60e51b815260040161046590612965565b60008151116108fe5760405162461bcd60e51b815260040161046590612841565b61075982600381111561090d57fe5b8261165c565b60006107e182604051806060016040528060298152602001612c02602991396002919063ffffffff61170216565b610949611ee5565b60016000838152600b602052604090205460ff16600381111561096857fe5b146109855760405162461bcd60e51b81526004016104659061299c565b6000828152600d6020526040902054600e805490919081106109a357fe5b90600052602060002090600402016040518060a001604052908160008201548152602001600182015481526020016002820160009054906101000a900460ff1660028111156109ee57fe5b60028111156109f957fe5b8152600282015461010090046001600160a01b03908116602083015260039092015490911660409091015292915050565b60098054604080516020601f60026000196101006001881615020190951694909404938401819004810282018101909252828152606093909290918301828280156106785780601f1061064d57610100808354040283529160200191610678565b60006001600160a01b038216610ab35760405162461bcd60e51b8152600401610465906126c8565b6001600160a01b03821660009081526001602052604090206107e190611484565b600a546001600160a01b03163314610afe5760405162461bcd60e51b815260040161046590612712565b6000825111610b1f5760405162461bcd60e51b815260040161046590612841565b6000610b2c60018461165c565b600e80546040805160a081018252848152426020820190815260009282018381526001600160a01b03891660608401526080830184905260018086018755959093528151600485027fbb7b4a454dc3493923482f07822329ed19e8244eff582cc204f8554c3620c3fd810191825591517fbb7b4a454dc3493923482f07822329ed19e8244eff582cc204f8554c3620c3fe83015592517fbb7b4a454dc3493923482f07822329ed19e8244eff582cc204f8554c3620c3ff90910180549697509395919492939092909160ff191690836002811115610c0657fe5b02179055506060820151600282018054610100600160a81b0319166101006001600160a01b0393841602179055608090920151600390910180546001600160a01b031916919092161790556000918252600d6020526040909120555050565b600b6020526000908152604090205460ff1681565b600e8181548110610c8757fe5b600091825260209091206004909102018054600182015460028301546003909301549193509160ff8116916001600160a01b036101009092048216911685565b60078054604080516020601f60026000196101006001881615020190951694909404938401819004810282018101909252828152606093909290918301828280156106785780601f1061064d57610100808354040283529160200191610678565b610d30611412565b6001600160a01b0316826001600160a01b03161415610d615760405162461bcd60e51b81526004016104659061254d565b8060056000610d6e611412565b6001600160a01b03908116825260208083019390935260409182016000908120918716808252919093529120805460ff191692151592909217909155610db2611412565b6001600160a01b03167f17307eab39ab6107e8899845ad3d59bd9653f200f220920489ca2b5937696c3183604051610dea91906123c8565b60405180910390a35050565b600a546001600160a01b03163314610e205760405162461bcd60e51b815260040161046590612712565b60016000838152600b602052604090205460ff166003811115610e3f57fe5b14610e5c5760405162461bcd60e51b81526004016104659061299c565b6000828152600d60205260409020546001600e8281548110610e7a57fe5b60009182526020909120600260049092020181015460ff1690811115610e9c57fe5b14610eb95760405162461bcd60e51b815260040161046590612584565b816001600160a01b0316600e8281548110610ed057fe5b60009182526020909120600360049092020101546001600160a01b031614610f0a5760405162461bcd60e51b815260040161046590612a50565b6002600e8281548110610f1957fe5b906000526020600020906004020160020160006101000a81548160ff02191690836002811115610f4557fe5b02179055506000838152600f60205260409020805460ff19166001179055600e8054610f98919083908110610f7657fe5b60009182526020909120600360049092020101546001600160a01b0316611719565b7f89b03c0d03474496b110b8e8bfce188551e3e93177aa8edc38469b8bc1fb5d608382846040516105bc93929190612b01565b610fdc610fd6611412565b8361148f565b610ff85760405162461bcd60e51b8152600401610465906129c8565b61100484848484611781565b50505050565b6060611015826113ff565b6110315760405162461bcd60e51b8152600401610465906128aa565b60008281526008602090815260409182902080548351601f60026000196101006001861615020190931692909204918201849004840281018401909452808452606093928301828280156110c65780601f1061109b576101008083540402835291602001916110c6565b820191906000526020600020905b8154815290600101906020018083116110a957829003601f168201915b5050505050905060606110d7610a2a565b90508051600014156110eb575090506105e7565b81511561111d5780826040516020016111059291906122ec565b604051602081830303815290604052925050506105e7565b80611127856117b4565b6040516020016111389291906122ec565b60405160208183030381529060405292505050919050565b6000828152600b602052604081205460ff16600381111561116d57fe5b14158015611198575060016000838152600b602052604090205460ff16600381111561119557fe5b14155b6111b45760405162461bcd60e51b815260040161046590612699565b6000828152600f602052604090205460ff16156111e35760405162461bcd60e51b81526004016104659061293a565b8051156111f4576111f48282611886565b6000828152600f60209081526040808320805460ff19166001179055600b909152908190205490517f22173be47f5f4297bba833614b1a23707e05332f81b2cd0dadb25ee2baff429c9161124f91859160ff16908590612ad0565b60405180910390a15050565b6001600160a01b03918216600090815260056020908152604080832093909416825291909152205460ff1690565b606060038211156112ac5760405162461bcd60e51b8152600401610465906124c4565b60606112b8600c6118ca565b67ffffffffffffffff811180156112ce57600080fd5b506040519080825280602002602001820160405280156112f8578160200160208202803683370190505b5090506000805b611309600c6118ca565b8110156113715784600381111561131c57fe5b600381111561132757fe5b6000828152600b602052604090205460ff16600381111561134457fe5b1415611369578083838151811061135757fe5b60209081029190910101526001909101905b6001016112ff565b5060608167ffffffffffffffff8111801561138b57600080fd5b506040519080825280602002602001820160405280156113b5578160200160208202803683370190505b50905060005b828110156113f6578381815181106113cf57fe5b60200260200101518282815181106113e357fe5b60209081029190910101526001016113bb565b50949350505050565b60006107e160028363ffffffff6118ce16565b3390565b600081815260046020526040902080546001600160a01b0319166001600160a01b038416908117909155819061144b82610913565b6001600160a01b03167f8c5be1e5ebec7d5bd14f71427d1e84f3dd0314c0f7b2291e5b200ac8c7c3b92560405160405180910390a45050565b60006107e1826118ca565b600061149a826113ff565b6114b65760405162461bcd60e51b8152600401610465906125f0565b60006114c183610913565b9050806001600160a01b0316846001600160a01b031614806114fc5750836001600160a01b03166114f184610683565b6001600160a01b0316145b8061150c575061150c818561125b565b949350505050565b826001600160a01b031661152782610913565b6001600160a01b03161461154d5760405162461bcd60e51b815260040161046590612861565b6001600160a01b0382166115735760405162461bcd60e51b815260040161046590612509565b61157e838383610759565b611589600082611416565b6001600160a01b03831660009081526001602052604090206115b1908263ffffffff6118da16565b506001600160a01b03821660009081526001602052604090206115da908263ffffffff6118e616565b506115ed6002828463ffffffff6118f216565b5080826001600160a01b0316846001600160a01b03167fddf252ad1be2c89b69c2b068fc378daa952ba7f163c4a11628f55a4df523b3ef60405160405180910390a4505050565b60006107de8383611908565b600080808061164f868661194d565b9097909650945050505050565b600080611669600c6118ca565b600a54909150611682906001600160a01b0316826119a9565b61168c8184611886565b6000818152600b60205260409020805485919060ff191660018360038111156116b157fe5b02179055506116c0600c6119c7565b7f9f29f2d6f5f07cdbde247fa6d5869ccdc7b7147d8ff52686b6e3ca9bd725f9728185856040516116f393929190612ad0565b60405180910390a19392505050565b600061170f8484846119d0565b90505b9392505050565b600a546040516380f5c62760e01b81526001600160a01b03909116906380f5c6279061174c90849060019060040161236b565b600060405180830381600087803b15801561176657600080fd5b505af115801561177a573d6000803e3d6000fd5b5050505050565b61178c848484611514565b61179884848484611a2f565b6110045760405162461bcd60e51b81526004016104659061243b565b6060816117d957506040805180820190915260018152600360fc1b60208201526105e7565b8160005b81156117f157600101600a820491506117dd565b60608167ffffffffffffffff8111801561180a57600080fd5b506040519080825280601f01601f191660200182016040528015611835576020820181803683370190505b50859350905060001982015b83156113f657600a840660300160f81b8282806001900393508151811061186457fe5b60200101906001600160f81b031916908160001a905350600a84049350611841565b61188f826113ff565b6118ab5760405162461bcd60e51b8152600401610465906127f5565b6000828152600860209081526040909120825161075992840190611f1f565b5490565b60006107de8383611b14565b60006107de8383611b2c565b60006107de8383611bf2565b600061170f84846001600160a01b038516611c3c565b8154600090821061192b5760405162461bcd60e51b8152600401610465906123f9565b82600001828154811061193a57fe5b9060005260206000200154905092915050565b8154600090819083106119725760405162461bcd60e51b815260040161046590612732565b600084600001848154811061198357fe5b906000526020600020906002020190508060000154816001015492509250509250929050565b6119c3828260405180602001604052806000815250611cd3565b5050565b80546001019055565b60008281526001840160205260408120548281611a005760405162461bcd60e51b815260040161046591906123e6565b50846000016001820381548110611a1357fe5b9060005260206000209060020201600101549150509392505050565b6000611a43846001600160a01b0316611d06565b611a4f5750600161150c565b6060611add630a85bd0160e11b611a64611412565b888787604051602401611a7a949392919061232e565b604051602081830303815290604052906001600160e01b0319166020820180516001600160e01b038381831617835250505050604051806060016040528060328152602001612bd0603291396001600160a01b038816919063ffffffff611d0c16565b9050600081806020019051810190611af591906121c4565b6001600160e01b031916630a85bd0160e11b1492505050949350505050565b60009081526001919091016020526040902054151590565b60008181526001830160205260408120548015611be85783546000198083019190810190600090879083908110611b5f57fe5b9060005260206000200154905080876000018481548110611b7c57fe5b600091825260208083209091019290925582815260018981019092526040902090840190558654879080611bac57fe5b600190038181906000526020600020016000905590558660010160008781526020019081526020016000206000905560019450505050506107e1565b60009150506107e1565b6000611bfe8383611b14565b611c34575081546001818101845560008481526020808220909301849055845484825282860190935260409020919091556107e1565b5060006107e1565b600082815260018401602052604081205480611ca1575050604080518082018252838152602080820184815286546001818101895560008981528481209551600290930290950191825591519082015586548684528188019092529290912055611712565b82856000016001830381548110611cb457fe5b9060005260206000209060020201600101819055506000915050611712565b611cdd8383611d1b565b611cea6000848484611a2f565b6107595760405162461bcd60e51b81526004016104659061243b565b3b151590565b606061170f8484600085611deb565b6001600160a01b038216611d415760405162461bcd60e51b815260040161046590612774565b611d4a816113ff565b15611d675760405162461bcd60e51b81526004016104659061248d565b611d7360008383610759565b6001600160a01b0382166000908152600160205260409020611d9b908263ffffffff6118e616565b50611dae6002828463ffffffff6118f216565b5060405181906001600160a01b038416906000907fddf252ad1be2c89b69c2b068fc378daa952ba7f163c4a11628f55a4df523b3ef908290a45050565b606082471015611e0d5760405162461bcd60e51b8152600401610465906125aa565b611e1685611d06565b611e325760405162461bcd60e51b815260040161046590612a19565b60006060866001600160a01b03168587604051611e4f91906122d0565b60006040518083038185875af1925050503d8060008114611e8c576040519150601f19603f3d011682016040523d82523d6000602084013e611e91565b606091505b5091509150611ea1828286611eac565b979650505050505050565b60608315611ebb575081611712565b825115611ecb5782518084602001fd5b8160405162461bcd60e51b815260040161046591906123e6565b6040518060a00160405280600081526020016000815260200160006002811115611f0b57fe5b815260006020820181905260409091015290565b828054600181600116156101000203166002900490600052602060002090601f016020900481019282601f10611f6057805160ff1916838001178555611f8d565b82800160010185558215611f8d579182015b82811115611f8d578251825591602001919060010190611f72565b50611f99929150611f9d565b5090565b61068091905b80821115611f995760008155600101611fa3565b80356001600160a01b03811681146107e157600080fd5b600082601f830112611fde578081fd5b813567ffffffffffffffff80821115611ff5578283fd5b604051601f8301601f191681016020018281118282101715612015578485fd5b60405282815292508284830160200186101561203057600080fd5b8260208601602083013760006020848301015250505092915050565b60006020828403121561205d578081fd5b6107de8383611fb7565b60008060408385031215612079578081fd5b6120838484611fb7565b91506120928460208501611fb7565b90509250929050565b6000806000606084860312156120af578081fd5b83356120ba81612ba4565b925060208401356120ca81612ba4565b929592945050506040919091013590565b600080600080608085870312156120f0578081fd5b6120fa8686611fb7565b93506121098660208701611fb7565b925060408501359150606085013567ffffffffffffffff81111561212b578182fd5b61213787828801611fce565b91505092959194509250565b60008060408385031215612155578182fd5b61215f8484611fb7565b915060208301358015158114612173578182fd5b809150509250929050565b60008060408385031215612190578182fd5b61219a8484611fb7565b946020939093013593505050565b6000602082840312156121b9578081fd5b813561171281612bb9565b6000602082840312156121d5578081fd5b815161171281612bb9565b600080604083850312156121f2578182fd5b823567ffffffffffffffff811115612208578283fd5b61221485828601611fce565b9250506120928460208501611fb7565b600060208284031215612235578081fd5b5035919050565b6000806040838503121561224e578182fd5b823591506120928460208501611fb7565b60008060408385031215612271578182fd5b82359150602083013567ffffffffffffffff81111561228e578182fd5b61229a85828601611fce565b9150509250929050565b600081518084526122bc816020860160208601612b6b565b601f01601f19169290920160200192915050565b600082516122e2818460208701612b6b565b9190910192915050565b600083516122fe818460208801612b6b565b8351908301612311828260208801612b6b565b01949350505050565b6001600160a01b0391909116815260200190565b6001600160a01b0385811682528416602082015260408101839052608060608201819052600090612361908301846122a4565b9695505050505050565b6001600160a01b03929092168252602082015260400190565b6020808252825182820181905260009190848201906040850190845b818110156123bc578351835292840192918401916001016123a0565b50909695505050505050565b901515815260200190565b602081016123e083612b97565b91905290565b6000602082526107de60208301846122a4565b60208082526022908201527f456e756d657261626c655365743a20696e646578206f7574206f6620626f756e604082015261647360f01b606082015260800190565b60208082526032908201527f4552433732313a207472616e7366657220746f206e6f6e20455243373231526560408201527131b2b4bb32b91034b6b83632b6b2b73a32b960711b606082015260800190565b6020808252601c908201527f4552433732313a20746f6b656e20616c7265616479206d696e74656400000000604082015260600190565b6020808252600a908201526957726f6e67207479706560b01b604082015260600190565b6020808252600790820152664e6f207479706560c81b604082015260600190565b60208082526024908201527f4552433732313a207472616e7366657220746f20746865207a65726f206164646040820152637265737360e01b606082015260800190565b60208082526019908201527f4552433732313a20617070726f766520746f2063616c6c657200000000000000604082015260600190565b6020808252600c908201526b77726f6e672073746174757360a01b604082015260600190565b60208082526026908201527f416464726573733a20696e73756666696369656e742062616c616e636520666f6040820152651c8818d85b1b60d21b606082015260800190565b6020808252602c908201527f4552433732313a206f70657261746f7220717565727920666f72206e6f6e657860408201526b34b9ba32b73a103a37b5b2b760a11b606082015260800190565b60208082526038908201527f4552433732313a20617070726f76652063616c6c6572206973206e6f74206f7760408201527f6e6572206e6f7220617070726f76656420666f7220616c6c0000000000000000606082015260800190565b6020808252601590820152741858dd1a5d9a5d1e48191bd95cdb9d08195e1a5cdd605a1b604082015260600190565b6020808252602a908201527f4552433732313a2062616c616e636520717565727920666f7220746865207a65604082015269726f206164647265737360b01b606082015260800190565b6020808252600690820152654e6f7420504160d01b604082015260600190565b60208082526022908201527f456e756d657261626c654d61703a20696e646578206f7574206f6620626f756e604082015261647360f01b606082015260800190565b6020808252818101527f4552433732313a206d696e7420746f20746865207a65726f2061646472657373604082015260600190565b6020808252602c908201527f4552433732313a20617070726f76656420717565727920666f72206e6f6e657860408201526b34b9ba32b73a103a37b5b2b760a11b606082015260800190565b6020808252602c908201527f4552433732314d657461646174613a2055524920736574206f66206e6f6e657860408201526b34b9ba32b73a103a37b5b2b760a11b606082015260800190565b6020808252600690820152654e6f2055524960d01b604082015260600190565b60208082526029908201527f4552433732313a207472616e73666572206f6620746f6b656e2074686174206960408201526839903737ba1037bbb760b91b606082015260800190565b6020808252602f908201527f4552433732314d657461646174613a2055524920717565727920666f72206e6f60408201526e3732bc34b9ba32b73a103a37b5b2b760891b606082015260800190565b60208082526021908201527f4552433732313a20617070726f76616c20746f2063757272656e74206f776e656040820152603960f91b606082015260800190565b602080825260119082015270185b1c9958591e48199a5b985b1a5e9959607a1b604082015260600190565b60208082526018908201527f557365206372656174655461736b20666f72207461736b730000000000000000604082015260600190565b6020808252601290820152714e6f7420636f7265207465616d207461736b60701b604082015260600190565b60208082526031908201527f4552433732313a207472616e736665722063616c6c6572206973206e6f74206f6040820152701ddb995c881b9bdc88185c1c1c9bdd9959607a1b606082015260800190565b6020808252601d908201527f416464726573733a2063616c6c20746f206e6f6e2d636f6e7472616374000000604082015260600190565b6020808252600b908201526a3bb937b733903a30b5b2b960a91b604082015260600190565b600060a0820190508251825260208301516020830152612a986040840151612b60565b60408301526060838101516001600160a01b039081169184019190915260809384015116929091019190915290565b90815260200190565b6000848252612ade84612b97565b83602083015260606040830152612af860608301846122a4565b95945050505050565b92835260208301919091526001600160a01b0316604082015260600190565b8581526020810185905260a08101612b3785612b60565b60408301526001600160a01b039384166060830152919092166080909201919091529392505050565b80600381106105e757fe5b60005b83811015612b86578181015183820152602001612b6e565b838111156110045750506000910152565b60048110612ba157fe5b50565b6001600160a01b0381168114612ba157600080fd5b6001600160e01b031981168114612ba157600080fdfe4552433732313a207472616e7366657220746f206e6f6e20455243373231526563656976657220696d706c656d656e7465724552433732313a206f776e657220717565727920666f72206e6f6e6578697374656e7420746f6b656ea26469706673582212201e063dc9a739cffec277d0bd80bafdd95a1dcd1bc653396bc7c2cd12ba14ca1164736f6c634300060a0033",
  "linkReferences": {},
  "deployedLinkReferences": {}
}