{
  "_format": "hh-sol-artifact-1",
  "contractName": "PartnersAgreement",
  "sourceName": "contracts/main/partnersAgreement/contracts/PartnersAgreement.sol",
  "abi": [
    {
      "inputs": [
        {
          "internalType": "address",
          "name": "skillWalletAddr",
          "type": "address"
        },
        {
          "internalType": "address",
          "name": "_interactionNFTFactory",
          "type": "address"
        },
        {
          "components": [
            {
              "internalType": "uint256",
              "name": "version",
              "type": "uint256"
            },
            {
              "internalType": "address",
              "name": "owner",
              "type": "address"
            },
            {
              "internalType": "address",
              "name": "communityAddress",
              "type": "address"
            },
            {
              "internalType": "address[]",
              "name": "partnersContracts",
              "type": "address[]"
            },
            {
              "internalType": "uint256",
              "name": "rolesCount",
              "type": "uint256"
            },
            {
              "internalType": "address",
              "name": "interactionContract",
              "type": "address"
            },
            {
              "internalType": "uint256",
              "name": "commitmentLevel",
              "type": "uint256"
            }
          ],
          "internalType": "struct Types.PartnersAgreementData",
          "name": "pa",
          "type": "tuple"
        }
      ],
      "stateMutability": "nonpayable",
      "type": "constructor"
    },
    {
      "anonymous": false,
      "inputs": [
        {
          "indexed": false,
          "internalType": "address",
          "name": "_contract",
          "type": "address"
        }
      ],
      "name": "PartnersContractAdded",
      "type": "event"
    },
    {
      "anonymous": false,
      "inputs": [
        {
          "indexed": false,
          "internalType": "string",
          "name": "_url",
          "type": "string"
        }
      ],
      "name": "UrlAdded",
      "type": "event"
    },
    {
      "inputs": [],
      "name": "activities",
      "outputs": [
        {
          "internalType": "contract IActivities",
          "name": "",
          "type": "address"
        }
      ],
      "stateMutability": "view",
      "type": "function"
    },
    {
      "inputs": [
        {
          "internalType": "address",
          "name": "contractAddress",
          "type": "address"
        }
      ],
      "name": "addNewContractAddressToAgreement",
      "outputs": [],
      "stateMutability": "nonpayable",
      "type": "function"
    },
    {
      "inputs": [
        {
          "internalType": "string",
          "name": "_url",
          "type": "string"
        }
      ],
      "name": "addURL",
      "outputs": [],
      "stateMutability": "nonpayable",
      "type": "function"
    },
    {
      "inputs": [],
      "name": "commitmentLevel",
      "outputs": [
        {
          "internalType": "uint256",
          "name": "",
          "type": "uint256"
        }
      ],
      "stateMutability": "view",
      "type": "function"
    },
    {
      "inputs": [],
      "name": "communityAddress",
      "outputs": [
        {
          "internalType": "address",
          "name": "",
          "type": "address"
        }
      ],
      "stateMutability": "view",
      "type": "function"
    },
    {
      "inputs": [
        {
          "internalType": "uint256",
          "name": "_type",
          "type": "uint256"
        },
        {
          "internalType": "string",
          "name": "_uri",
          "type": "string"
        }
      ],
      "name": "createActivity",
      "outputs": [],
      "stateMutability": "nonpayable",
      "type": "function"
    },
    {
      "inputs": [
        {
          "internalType": "address",
          "name": "_factory",
          "type": "address"
        }
      ],
      "name": "deployActivities",
      "outputs": [],
      "stateMutability": "nonpayable",
      "type": "function"
    },
    {
      "inputs": [
        {
          "internalType": "uint256",
          "name": "_activityId",
          "type": "uint256"
        }
      ],
      "name": "finilizeTask",
      "outputs": [],
      "stateMutability": "nonpayable",
      "type": "function"
    },
    {
      "inputs": [],
      "name": "getActivitiesAddress",
      "outputs": [
        {
          "internalType": "address",
          "name": "",
          "type": "address"
        }
      ],
      "stateMutability": "view",
      "type": "function"
    },
    {
      "inputs": [],
      "name": "getAgreementData",
      "outputs": [
        {
          "components": [
            {
              "internalType": "uint256",
              "name": "version",
              "type": "uint256"
            },
            {
              "internalType": "address",
              "name": "owner",
              "type": "address"
            },
            {
              "internalType": "address",
              "name": "communityAddress",
              "type": "address"
            },
            {
              "internalType": "address[]",
              "name": "partnersContracts",
              "type": "address[]"
            },
            {
              "internalType": "uint256",
              "name": "rolesCount",
              "type": "uint256"
            },
            {
              "internalType": "address",
              "name": "interactionContract",
              "type": "address"
            },
            {
              "internalType": "uint256",
              "name": "commitmentLevel",
              "type": "uint256"
            }
          ],
          "internalType": "struct Types.PartnersAgreementData",
          "name": "",
          "type": "tuple"
        }
      ],
      "stateMutability": "view",
      "type": "function"
    },
    {
      "inputs": [],
      "name": "getAllMembers",
      "outputs": [
        {
          "internalType": "address[]",
          "name": "",
          "type": "address[]"
        }
      ],
      "stateMutability": "view",
      "type": "function"
    },
    {
      "inputs": [],
      "name": "getImportedAddresses",
      "outputs": [
        {
          "internalType": "address[]",
          "name": "",
          "type": "address[]"
        }
      ],
      "stateMutability": "view",
      "type": "function"
    },
    {
      "inputs": [],
      "name": "getSkillWalletAddress",
      "outputs": [
        {
          "internalType": "address",
          "name": "",
          "type": "address"
        }
      ],
      "stateMutability": "view",
      "type": "function"
    },
    {
      "inputs": [],
      "name": "getURLs",
      "outputs": [
        {
          "internalType": "string[]",
          "name": "",
          "type": "string[]"
        }
      ],
      "stateMutability": "view",
      "type": "function"
    },
    {
      "inputs": [],
      "name": "interactionNFT",
      "outputs": [
        {
          "internalType": "address",
          "name": "",
          "type": "address"
        }
      ],
      "stateMutability": "view",
      "type": "function"
    },
    {
      "inputs": [],
      "name": "interactionNFTFactory",
      "outputs": [
        {
          "internalType": "address",
          "name": "",
          "type": "address"
        }
      ],
      "stateMutability": "view",
      "type": "function"
    },
    {
      "inputs": [],
      "name": "isActive",
      "outputs": [
        {
          "internalType": "bool",
          "name": "",
          "type": "bool"
        }
      ],
      "stateMutability": "view",
      "type": "function"
    },
    {
      "inputs": [
        {
          "internalType": "string",
          "name": "_url",
          "type": "string"
        }
      ],
      "name": "isURLListed",
      "outputs": [
        {
          "internalType": "bool",
          "name": "",
          "type": "bool"
        }
      ],
      "stateMutability": "view",
      "type": "function"
    },
    {
      "inputs": [
        {
          "internalType": "address",
          "name": "",
          "type": "address"
        },
        {
          "internalType": "address",
          "name": "",
          "type": "address"
        },
        {
          "internalType": "uint256[]",
          "name": "",
          "type": "uint256[]"
        },
        {
          "internalType": "uint256[]",
          "name": "",
          "type": "uint256[]"
        },
        {
          "internalType": "bytes",
          "name": "",
          "type": "bytes"
        }
      ],
      "name": "onERC1155BatchReceived",
      "outputs": [
        {
          "internalType": "bytes4",
          "name": "",
          "type": "bytes4"
        }
      ],
      "stateMutability": "nonpayable",
      "type": "function"
    },
    {
      "inputs": [
        {
          "internalType": "address",
          "name": "",
          "type": "address"
        },
        {
          "internalType": "address",
          "name": "",
          "type": "address"
        },
        {
          "internalType": "uint256",
          "name": "",
          "type": "uint256"
        },
        {
          "internalType": "uint256",
          "name": "",
          "type": "uint256"
        },
        {
          "internalType": "bytes",
          "name": "",
          "type": "bytes"
        }
      ],
      "name": "onERC1155Received",
      "outputs": [
        {
          "internalType": "bytes4",
          "name": "",
          "type": "bytes4"
        }
      ],
      "stateMutability": "nonpayable",
      "type": "function"
    },
    {
      "inputs": [
        {
          "internalType": "address",
          "name": "",
          "type": "address"
        },
        {
          "internalType": "address",
          "name": "",
          "type": "address"
        },
        {
          "internalType": "uint256",
          "name": "",
          "type": "uint256"
        },
        {
          "internalType": "bytes",
          "name": "",
          "type": "bytes"
        }
      ],
      "name": "onERC721Received",
      "outputs": [
        {
          "internalType": "bytes4",
          "name": "",
          "type": "bytes4"
        }
      ],
      "stateMutability": "nonpayable",
      "type": "function"
    },
    {
      "inputs": [],
      "name": "owner",
      "outputs": [
        {
          "internalType": "address",
          "name": "",
          "type": "address"
        }
      ],
      "stateMutability": "view",
      "type": "function"
    },
    {
      "inputs": [
        {
          "internalType": "uint256",
          "name": "",
          "type": "uint256"
        }
      ],
      "name": "partnersContracts",
      "outputs": [
        {
          "internalType": "address",
          "name": "",
          "type": "address"
        }
      ],
      "stateMutability": "view",
      "type": "function"
    },
    {
      "inputs": [
        {
          "internalType": "string",
          "name": "_url",
          "type": "string"
        }
      ],
      "name": "removeURL",
      "outputs": [],
      "stateMutability": "nonpayable",
      "type": "function"
    },
    {
      "inputs": [],
      "name": "rolesCount",
      "outputs": [
        {
          "internalType": "uint256",
          "name": "",
          "type": "uint256"
        }
      ],
      "stateMutability": "view",
      "type": "function"
    },
    {
      "inputs": [
        {
          "internalType": "address",
          "name": "_activity",
          "type": "address"
        },
        {
          "internalType": "address",
          "name": "_interactionNFT",
          "type": "address"
        }
      ],
      "name": "setActivities",
      "outputs": [],
      "stateMutability": "nonpayable",
      "type": "function"
    },
    {
      "inputs": [
        {
          "internalType": "bytes4",
          "name": "interfaceId",
          "type": "bytes4"
        }
      ],
      "name": "supportsInterface",
      "outputs": [
        {
          "internalType": "bool",
          "name": "",
          "type": "bool"
        }
      ],
      "stateMutability": "view",
      "type": "function"
    },
    {
      "inputs": [
        {
          "internalType": "uint256",
          "name": "_activityId",
          "type": "uint256"
        }
      ],
      "name": "takeTask",
      "outputs": [],
      "stateMutability": "nonpayable",
      "type": "function"
    },
    {
      "inputs": [
        {
          "internalType": "address",
          "name": "user",
          "type": "address"
        },
        {
          "internalType": "uint256",
          "name": "amountOfInteractions",
          "type": "uint256"
        }
      ],
      "name": "transferInteractionNFTs",
      "outputs": [],
      "stateMutability": "nonpayable",
      "type": "function"
    },
    {
      "inputs": [
        {
          "internalType": "uint256",
          "name": "",
          "type": "uint256"
        }
      ],
      "name": "urls",
      "outputs": [
        {
          "internalType": "string",
          "name": "",
          "type": "string"
        }
      ],
      "stateMutability": "view",
      "type": "function"
    },
    {
      "inputs": [],
      "name": "version",
      "outputs": [
        {
          "internalType": "uint256",
          "name": "",
          "type": "uint256"
        }
      ],
      "stateMutability": "view",
      "type": "function"
    }
  ],
  "bytecode": "0x60806040523480156200001157600080fd5b506040516200310a3803806200310a83398101604081905262000034916200021f565b6200004f6301ffc9a760e01b6001600160e01b036200011f16565b6200006a630271189760e51b6001600160e01b036200011f16565b80608001516002148062000082575080608001516003145b620000aa5760405162461bcd60e51b8152600401620000a1906200034d565b60405180910390fd5b805160015560808101516007556020810151600280546001600160a01b03199081166001600160a01b0393841617909155604083015160038054831691841691909117905560c090920151600c5560088054831693821693909317909255600a805490911692909116919091179055620003ab565b6001600160e01b031980821614156200014c5760405162461bcd60e51b8152600401620000a19062000316565b6001600160e01b0319166000908152602081905260409020805460ff19166001179055565b80516001600160a01b03811681146200018957600080fd5b92915050565b600082601f830112620001a0578081fd5b81516001600160401b03811115620001b6578182fd5b6020808202620001c882820162000384565b83815293508184018583018287018401881015620001e557600080fd5b600092505b848310156200021457620001ff888262000171565b825260019290920191908301908301620001ea565b505050505092915050565b60008060006060848603121562000234578283fd5b62000240858562000171565b925062000251856020860162000171565b60408501519092506001600160401b03808211156200026e578283fd5b81860160e0818903121562000281578384fd5b6200028d60e062000384565b925080518352620002a2886020830162000171565b6020840152620002b6886040830162000171565b6040840152606081015182811115620002cd578485fd5b620002db898284016200018f565b60608501525060808101516080840152620002fa8860a0830162000171565b60a084015260c081015160c08401525050809150509250925092565b6020808252601c908201527f4552433136353a20696e76616c696420696e7465726661636520696400000000604082015260600190565b6020808252601a908201527f4f6e6c792032206f72203320726f6c6573206163636570746564000000000000604082015260600190565b6040518181016001600160401b0381118282101715620003a357600080fd5b604052919050565b612d4f80620003bb6000396000f3fe608060405234801561001057600080fd5b50600436106101e55760003560e01c806380f5c6271161010f578063b8517dd8116100a2578063eec9291e11610071578063eec9291e146103c4578063f05342a6146103d7578063f23a6e61146103df578063feebd12c146103f2576101e5565b8063b8517dd81461038e578063bc197c8114610396578063d103449c146103a9578063d1f64150146103bc576101e5565b80638da5cb5b116100de5780638da5cb5b146103635780638f2809e71461036b578063a6094c4c1461037e578063b13d1a9414610386576101e5565b806380f5c6271461032d578063810e8c041461034057806386e476dd146103535780638bc48ddf1461035b576101e5565b80634b9f9f3c1161018757806368839d281161015657806368839d28146102d25780636df32a01146102e5578063796676be146102f85780637c0f6b3514610318576101e5565b80634b9f9f3c1461028d57806354fd4d501461029557806356deb110146102aa57806362fe024a146102bf576101e5565b80631e14e5fc116101c35780631e14e5fc14610248578063206110db1461025d57806322f3e2d41461027257806329ec028b1461027a576101e5565b806301ffc9a7146101ea578063150b7a02146102135780631bce33c814610233575b600080fd5b6101fd6101f83660046126bf565b610405565b60405161020a9190612973565b60405180910390f35b610226610221366004612507565b610428565b60405161020a919061297e565b61023b610438565b60405161020a9190612c01565b610250610589565b60405161020a91906128b4565b610265610598565b60405161020a9190612913565b6101fd610670565b610250610288366004612741565b6107fb565b610250610822565b61029d6109f2565b60405161020a9190612c76565b6102bd6102b8366004612741565b6109f8565b005b6102bd6102cd366004612771565b610afa565b6101fd6102e0366004612706565b610c71565b6102bd6102f33660046123e6565b610cf4565b61030b610306366004612741565b610e79565b60405161020a9190612993565b610320610f1f565b60405161020a9190612900565b6102bd61033b3660046125d8565b610fa0565b6102bd61034e366004612706565b61131b565b61025061171b565b61025061172a565b610250611739565b6102bd610379366004612425565b611748565b6102506117a0565b6102506117af565b61029d6117be565b6102266103a436600461245d565b6117c4565b6102bd6103b7366004612706565b6117d5565b61029d611b5e565b6102bd6103d23660046123e6565b611b64565b610320611ee2565b6102266103ed366004612571565b6120f9565b6102bd610400366004612741565b61210a565b6001600160e01b0319811660009081526020819052604090205460ff165b919050565b630a85bd0160e11b949350505050565b6104406121d8565b6040805160e08101825260015481526002546001600160a01b0390811660208084019190915260035490911682840152600480548451818402810184019095528085529293606085019390928301828280156104c557602002820191906000526020600020905b81546001600160a01b031681526001909101906020018083116104a7575b505050918352505060075460208201526009546001600160a01b0316604082018190526060909101901561057e57600960009054906101000a90046001600160a01b03166001600160a01b0316630ed15b036040518163ffffffff1660e01b815260040160206040518083038186803b15801561054157600080fd5b505afa158015610555573d6000803e3d6000fd5b505050506040513d601f19601f820116820180604052508101906105799190612759565b610581565b60645b905290505b90565b600b546001600160a01b031681565b60606005805480602002602001604051908101604052809291908181526020016000905b828210156106675760008481526020908190208301805460408051601f60026000196101006001871615020190941693909304928301859004850281018501909152818152928301828280156106535780601f1061062857610100808354040283529160200191610653565b820191906000526020600020905b81548152906001019060200180831161063657829003601f168201915b5050505050815260200190600101906105bc565b50505050905090565b60035460025460405163288c314960e21b81526000926001600160a01b039081169263a230c524926106a892909116906004016128b4565b60206040518083038186803b1580156106c057600080fd5b505afa1580156106d4573d6000803e3d6000fd5b505050506040513d601f19601f820116820180604052508101906106f8919061269f565b80156107f65750600a546002546040516342ca962960e01b81526001600160a01b0392831692638f4b3f599284926342ca96299261073a9216906004016128b4565b60206040518083038186803b15801561075257600080fd5b505afa158015610766573d6000803e3d6000fd5b505050506040513d601f19601f8201168201806040525081019061078a9190612759565b6040518263ffffffff1660e01b81526004016107a69190612c76565b60206040518083038186803b1580156107be57600080fd5b505afa1580156107d2573d6000803e3d6000fd5b505050506040513d601f19601f820116820180604052508101906107f6919061269f565b905090565b6004818154811061080857fe5b6000918252602090912001546001600160a01b0316905081565b60035460025460405163288c314960e21b81526000926001600160a01b039081169263a230c5249261085a92909116906004016128b4565b60206040518083038186803b15801561087257600080fd5b505afa158015610886573d6000803e3d6000fd5b505050506040513d601f19601f820116820180604052508101906108aa919061269f565b6108cf5760405162461bcd60e51b81526004016108c6906129fa565b60405180910390fd5b600a546002546040516342ca962960e01b81526001600160a01b0392831692638f4b3f599284926342ca96299261090a9216906004016128b4565b60206040518083038186803b15801561092257600080fd5b505afa158015610936573d6000803e3d6000fd5b505050506040513d601f19601f8201168201806040525081019061095a9190612759565b6040518263ffffffff1660e01b81526004016109769190612c76565b60206040518083038186803b15801561098e57600080fd5b505afa1580156109a2573d6000803e3d6000fd5b505050506040513d601f19601f820116820180604052508101906109c6919061269f565b6109e25760405162461bcd60e51b81526004016108c690612afb565b50600b546001600160a01b031690565b60015481565b600354604051631c10191360e21b81526001600160a01b0390911690637040644c90610a289033906004016128b4565b60206040518083038186803b158015610a4057600080fd5b505afa158015610a54573d6000803e3d6000fd5b505050506040513d601f19601f82011682018060405250810190610a78919061269f565b610a945760405162461bcd60e51b81526004016108c690612a9a565b600b5460405162dcc06f60e11b81526001600160a01b03909116906301b980de90610ac59084903390600401612c7f565b600060405180830381600087803b158015610adf57600080fd5b505af1158015610af3573d6000803e3d6000fd5b5050505050565b600354604051631c10191360e21b81526001600160a01b0390911690637040644c90610b2a9033906004016128b4565b60206040518083038186803b158015610b4257600080fd5b505afa158015610b56573d6000803e3d6000fd5b505050506040513d601f19601f82011682018060405250810190610b7a919061269f565b610b965760405162461bcd60e51b81526004016108c690612a9a565b8160011415610c0857600b546040516371a244b360e01b81526001600160a01b03909116906371a244b390610bd190849033906004016129a6565b600060405180830381600087803b158015610beb57600080fd5b505af1158015610bff573d6000803e3d6000fd5b50505050610c6d565b600b5460405163317f012560e11b81526001600160a01b03909116906362fe024a90610c3a9085908590600401612ca4565b600060405180830381600087803b158015610c5457600080fd5b505af1158015610c68573d6000803e3d6000fd5b505050505b5050565b600554600090610c8357506000610423565b81516020808401919091206000818152600690925260409091205415610cad576001915050610423565b806005600081548110610cbc57fe5b90600052602060002001604051610cd39190612844565b60405180910390201415610ceb576001915050610423565b50600092915050565b6002546001600160a01b03163314610d1e5760405162461bcd60e51b81526004016108c690612bb4565b600b546001600160a01b031615610d475760405162461bcd60e51b81526004016108c6906129d0565b806001600160a01b03166320c727096040518163ffffffff1660e01b8152600401602060405180830381600087803b158015610d8257600080fd5b505af1158015610d96573d6000803e3d6000fd5b505050506040513d601f19601f82011682018060405250810190610dba9190612409565b600b80546001600160a01b0319166001600160a01b03928316179055600854600754604051636b78b35160e01b81529190921691636b78b35191610e049190606490600401612c96565b602060405180830381600087803b158015610e1e57600080fd5b505af1158015610e32573d6000803e3d6000fd5b505050506040513d601f19601f82011682018060405250810190610e569190612409565b600980546001600160a01b0319166001600160a01b039290921691909117905550565b60058181548110610e8657fe5b600091825260209182902001805460408051601f6002600019610100600187161502019094169390930492830185900485028101850190915281815293509091830182828015610f175780601f10610eec57610100808354040283529160200191610f17565b820191906000526020600020905b815481529060010190602001808311610efa57829003601f168201915b505050505081565b6003546040805163e77056a160e01b815290516060926001600160a01b03169163e77056a1916004808301926000929190829003018186803b158015610f6457600080fd5b505afa158015610f78573d6000803e3d6000fd5b505050506040513d6000823e601f3d908101601f191682016040526107f69190810190612603565b60035460025460405163288c314960e21b81526001600160a01b039283169263a230c52492610fd4929116906004016128b4565b60206040518083038186803b158015610fec57600080fd5b505afa158015611000573d6000803e3d6000fd5b505050506040513d601f19601f82011682018060405250810190611024919061269f565b6110405760405162461bcd60e51b81526004016108c6906129fa565b600a546002546040516342ca962960e01b81526001600160a01b0392831692638f4b3f599284926342ca96299261107b9216906004016128b4565b60206040518083038186803b15801561109357600080fd5b505afa1580156110a7573d6000803e3d6000fd5b505050506040513d601f19601f820116820180604052508101906110cb9190612759565b6040518263ffffffff1660e01b81526004016110e79190612c76565b60206040518083038186803b1580156110ff57600080fd5b505afa158015611113573d6000803e3d6000fd5b505050506040513d601f19601f82011682018060405250810190611137919061269f565b6111535760405162461bcd60e51b81526004016108c690612afb565b600b546001600160a01b0316331461117d5760405162461bcd60e51b81526004016108c690612ad1565b6001600160a01b0382166111a35760405162461bcd60e51b81526004016108c690612a6c565b600081116111c35760405162461bcd60e51b81526004016108c690612b30565b60035460405163288c314960e21b81526001600160a01b039091169063a230c524906111f39085906004016128b4565b60206040518083038186803b15801561120b57600080fd5b505afa15801561121f573d6000803e3d6000fd5b505050506040513d601f19601f82011682018060405250810190611243919061269f565b61125f5760405162461bcd60e51b81526004016108c690612a6c565b600954600a54604051634427673360e01b81526001600160a01b039283169263f242432a9230928792909116906344276733906112a09084906004016128b4565b60206040518083038186803b1580156112b857600080fd5b505afa1580156112cc573d6000803e3d6000fd5b505050506040513d601f19601f820116820180604052508101906112f091906126e7565b60068111156112fb57fe5b856040518563ffffffff1660e01b8152600401610c3a94939291906128c8565b60035460025460405163288c314960e21b81526001600160a01b039283169263a230c5249261134f929116906004016128b4565b60206040518083038186803b15801561136757600080fd5b505afa15801561137b573d6000803e3d6000fd5b505050506040513d601f19601f8201168201806040525081019061139f919061269f565b6113bb5760405162461bcd60e51b81526004016108c6906129fa565b600a546002546040516342ca962960e01b81526001600160a01b0392831692638f4b3f599284926342ca9629926113f69216906004016128b4565b60206040518083038186803b15801561140e57600080fd5b505afa158015611422573d6000803e3d6000fd5b505050506040513d601f19601f820116820180604052508101906114469190612759565b6040518263ffffffff1660e01b81526004016114629190612c76565b60206040518083038186803b15801561147a57600080fd5b505afa15801561148e573d6000803e3d6000fd5b505050506040513d601f19601f820116820180604052508101906114b2919061269f565b6114ce5760405162461bcd60e51b81526004016108c690612afb565b600354604051631c10191360e21b81526001600160a01b0390911690637040644c906114fe9033906004016128b4565b60206040518083038186803b15801561151657600080fd5b505afa15801561152a573d6000803e3d6000fd5b505050506040513d601f19601f8201168201806040525081019061154e919061269f565b61156a5760405162461bcd60e51b81526004016108c690612a9a565b6002546001600160a01b031633146115945760405162461bcd60e51b81526004016108c690612bb4565b61159d81610c71565b6115b95760405162461bcd60e51b81526004016108c690612bd7565b8051602080830191909120600081815260069092526040909120546005546000190181146116df57600580546060919060001981019081106115f757fe5b600091825260209182902001805460408051601f60026000196101006001871615020190941693909304928301859004850281018501909152818152928301828280156116855780601f1061165a57610100808354040283529160200191611685565b820191906000526020600020905b81548152906001019060200180831161166857829003601f168201915b5050505050905060008180519060200120905082600660008381526020019081526020016000208190555081600584815481106116be57fe5b9060005260206000200190805190602001906116db929190612230565b5050505b60058054806116ea57fe5b60019003818190600052602060002001600061170691906122ae565b90555060009081526006602052604081205550565b6003546001600160a01b031681565b600a546001600160a01b031690565b6002546001600160a01b031681565b6002546001600160a01b031633146117725760405162461bcd60e51b81526004016108c690612bb4565b600b80546001600160a01b039384166001600160a01b03199182161790915560098054929093169116179055565b6009546001600160a01b031681565b6008546001600160a01b031681565b60075481565b63bc197c8160e01b95945050505050565b60035460025460405163288c314960e21b81526001600160a01b039283169263a230c52492611809929116906004016128b4565b60206040518083038186803b15801561182157600080fd5b505afa158015611835573d6000803e3d6000fd5b505050506040513d601f19601f82011682018060405250810190611859919061269f565b6118755760405162461bcd60e51b81526004016108c6906129fa565b600a546002546040516342ca962960e01b81526001600160a01b0392831692638f4b3f599284926342ca9629926118b09216906004016128b4565b60206040518083038186803b1580156118c857600080fd5b505afa1580156118dc573d6000803e3d6000fd5b505050506040513d601f19601f820116820180604052508101906119009190612759565b6040518263ffffffff1660e01b815260040161191c9190612c76565b60206040518083038186803b15801561193457600080fd5b505afa158015611948573d6000803e3d6000fd5b505050506040513d601f19601f8201168201806040525081019061196c919061269f565b6119885760405162461bcd60e51b81526004016108c690612afb565b600354604051631c10191360e21b81526001600160a01b0390911690637040644c906119b89033906004016128b4565b60206040518083038186803b1580156119d057600080fd5b505afa1580156119e4573d6000803e3d6000fd5b505050506040513d601f19601f82011682018060405250810190611a08919061269f565b611a245760405162461bcd60e51b81526004016108c690612a9a565b6002546001600160a01b03163314611a4e5760405162461bcd60e51b81526004016108c690612bb4565b8051602082012060055460009015611ab057600082815260066020526040902054151580611aa75750816005600081548110611a8657fe5b90600052602060002001604051611a9d9190612844565b6040518091039020145b15611ab0575060015b8015611ace5760405162461bcd60e51b81526004016108c690612a40565b60058054600084815260066020908152604082208390556001830184559290528451611b21927f036b6384b5eca791c62761152d0c79bb0604c104a5fb6f4eb0703f3154bb3db090920191860190612230565b507f21d5cca3f840791ade736f51501810c14b8b01791ac4357713ed763ccbbaf3a983604051611b519190612993565b60405180910390a1505050565b600c5481565b60035460025460405163288c314960e21b81526001600160a01b039283169263a230c52492611b98929116906004016128b4565b60206040518083038186803b158015611bb057600080fd5b505afa158015611bc4573d6000803e3d6000fd5b505050506040513d601f19601f82011682018060405250810190611be8919061269f565b611c045760405162461bcd60e51b81526004016108c6906129fa565b600a546002546040516342ca962960e01b81526001600160a01b0392831692638f4b3f599284926342ca962992611c3f9216906004016128b4565b60206040518083038186803b158015611c5757600080fd5b505afa158015611c6b573d6000803e3d6000fd5b505050506040513d601f19601f82011682018060405250810190611c8f9190612759565b6040518263ffffffff1660e01b8152600401611cab9190612c76565b60206040518083038186803b158015611cc357600080fd5b505afa158015611cd7573d6000803e3d6000fd5b505050506040513d601f19601f82011682018060405250810190611cfb919061269f565b611d175760405162461bcd60e51b81526004016108c690612afb565b600354604051631c10191360e21b81526001600160a01b0390911690637040644c90611d479033906004016128b4565b60206040518083038186803b158015611d5f57600080fd5b505afa158015611d73573d6000803e3d6000fd5b505050506040513d601f19601f82011682018060405250810190611d97919061269f565b611db35760405162461bcd60e51b81526004016108c690612a9a565b6000819050336001600160a01b0316816001600160a01b0316638da5cb5b6040518163ffffffff1660e01b8152600401602060405180830381600087803b158015611dfd57600080fd5b505af1158015611e11573d6000803e3d6000fd5b505050506040513d601f19601f82011682018060405250810190611e359190612409565b6001600160a01b031614611e5b5760405162461bcd60e51b81526004016108c690612b67565b600480546001810182556000919091527f8a35acfbc15ff81a39ae7d344fd709f28e8600b4aa8c65c6b64bfe7fe36bd19b0180546001600160a01b0319166001600160a01b0384161790556040517f5df7b055927736702686cada225d0575ec5509ebddac9127a9cde481bc6a198e90611ed69084906128b4565b60405180910390a15050565b60035460025460405163288c314960e21b81526060926001600160a01b039081169263a230c52492611f1a92909116906004016128b4565b60206040518083038186803b158015611f3257600080fd5b505afa158015611f46573d6000803e3d6000fd5b505050506040513d601f19601f82011682018060405250810190611f6a919061269f565b611f865760405162461bcd60e51b81526004016108c6906129fa565b600a546002546040516342ca962960e01b81526001600160a01b0392831692638f4b3f599284926342ca962992611fc19216906004016128b4565b60206040518083038186803b158015611fd957600080fd5b505afa158015611fed573d6000803e3d6000fd5b505050506040513d601f19601f820116820180604052508101906120119190612759565b6040518263ffffffff1660e01b815260040161202d9190612c76565b60206040518083038186803b15801561204557600080fd5b505afa158015612059573d6000803e3d6000fd5b505050506040513d601f19601f8201168201806040525081019061207d919061269f565b6120995760405162461bcd60e51b81526004016108c690612afb565b60048054806020026020016040519081016040528092919081815260200182805480156120ef57602002820191906000526020600020905b81546001600160a01b031681526001909101906020018083116120d1575b5050505050905090565b63f23a6e6160e01b95945050505050565b600354604051631c10191360e21b81526001600160a01b0390911690637040644c9061213a9033906004016128b4565b60206040518083038186803b15801561215257600080fd5b505afa158015612166573d6000803e3d6000fd5b505050506040513d601f19601f8201168201806040525081019061218a919061269f565b6121a65760405162461bcd60e51b81526004016108c690612a9a565b600b5460405163b843b0e760e01b81526001600160a01b039091169063b843b0e790610ac59084903390600401612c7f565b6040518060e001604052806000815260200160006001600160a01b0316815260200160006001600160a01b03168152602001606081526020016000815260200160006001600160a01b03168152602001600081525090565b828054600181600116156101000203166002900490600052602060002090601f016020900481019282601f1061227157805160ff191683800117855561229e565b8280016001018555821561229e579182015b8281111561229e578251825591602001919060010190612283565b506122aa9291506122f5565b5090565b50805460018160011615610100020316600290046000825580601f106122d457506122f2565b601f0160209004906000526020600020908101906122f291906122f5565b50565b61058691905b808211156122aa57600081556001016122fb565b600082601f83011261231f578081fd5b813561233261232d82612ce4565b612cbd565b81815291506020808301908481018184028601820187101561235357600080fd5b60005b8481101561237257813584529282019290820190600101612356565b505050505092915050565b600082601f83011261238d578081fd5b813567ffffffffffffffff8111156123a3578182fd5b6123b6601f8201601f1916602001612cbd565b91508082528360208285010111156123cd57600080fd5b8060208401602084013760009082016020015292915050565b6000602082840312156123f7578081fd5b813561240281612d04565b9392505050565b60006020828403121561241a578081fd5b815161240281612d04565b60008060408385031215612437578081fd5b823561244281612d04565b9150602083013561245281612d04565b809150509250929050565b600080600080600060a08688031215612474578081fd5b853561247f81612d04565b9450602086013561248f81612d04565b9350604086013567ffffffffffffffff808211156124ab578283fd5b6124b789838a0161230f565b945060608801359150808211156124cc578283fd5b6124d889838a0161230f565b935060808801359150808211156124ed578283fd5b506124fa8882890161237d565b9150509295509295909350565b6000806000806080858703121561251c578384fd5b843561252781612d04565b9350602085013561253781612d04565b925060408501359150606085013567ffffffffffffffff811115612559578182fd5b6125658782880161237d565b91505092959194509250565b600080600080600060a08688031215612588578081fd5b853561259381612d04565b945060208601356125a381612d04565b93506040860135925060608601359150608086013567ffffffffffffffff8111156125cc578182fd5b6124fa8882890161237d565b600080604083850312156125ea578182fd5b82356125f581612d04565b946020939093013593505050565b60006020808385031215612615578182fd5b825167ffffffffffffffff81111561262b578283fd5b80840185601f82011261263c578384fd5b8051915061264c61232d83612ce4565b8281528381019082850185850284018601891015612668578687fd5b8693505b8484101561269357805161267f81612d04565b83526001939093019291850191850161266c565b50979650505050505050565b6000602082840312156126b0578081fd5b81518015158114612402578182fd5b6000602082840312156126d0578081fd5b81356001600160e01b031981168114612402578182fd5b6000602082840312156126f8578081fd5b815160078110612402578182fd5b600060208284031215612717578081fd5b813567ffffffffffffffff81111561272d578182fd5b6127398482850161237d565b949350505050565b600060208284031215612752578081fd5b5035919050565b60006020828403121561276a578081fd5b5051919050565b60008060408385031215612783578182fd5b82359150602083013567ffffffffffffffff8111156127a0578182fd5b6127ac8582860161237d565b9150509250929050565b6000815180845260208085019450808401835b838110156127ee5781516001600160a01b0316875295820195908201906001016127c9565b509495945050505050565b60008151808452815b8181101561281e57602081850181015186830182015201612802565b8181111561282f5782602083870101525b50601f01601f19169290920160200192915050565b6000808354600180821660008114612863576001811461287a576128a9565b60ff198316865260028304607f16860193506128a9565b600283048786526020808720875b838110156128a15781548a820152908501908201612888565b505050860193505b509195945050505050565b6001600160a01b0391909116815260200190565b6001600160a01b0394851681529290931660208301526040820152606081019190915260a06080820181905260009082015260c00190565b60006020825261240260208301846127b6565b6000602080830181845280855180835260408601915060408482028701019250838701855b8281101561296657603f198886030184526129548583516127f9565b94509285019290850190600101612938565b5092979650505050505050565b901515815260200190565b6001600160e01b031991909116815260200190565b60006020825261240260208301846127f9565b6000604082526129b960408301856127f9565b905060018060a01b03831660208301529392505050565b60208082526010908201526f185b1c9958591e4819195c1b1bde595960821b604082015260600190565b60208082526026908201527f4f776e6572206861736e2774206a6f696e65642074686520636f6d6d756e697460408201526579207965742160d01b606082015260800190565b60208082526012908201527175726c20616c72656164792065786973747360701b604082015260600190565b602080825260149082015273496e76616c69642075736572206164647265737360601b604082015260600190565b60208082526017908201527f4e6f74206120636f7265207465616d206d656d62657221000000000000000000604082015260600190565b60208082526010908201526f4f6e6c7920616374697669746965732160801b604082015260600190565b6020808252818101527f4f776e6572206861736e27742061637469766174656420746865697220535721604082015260600190565b6020808252601e908201527f496e76616c696420616d6f756e74206f6620696e746572616374696f6e730000604082015260600190565b6020808252602d908201527f4f6e6c7920746865206f776e6572206f662074686520636f6e7472616374206360408201526c616e20696d706f72742069742160981b606082015260800190565b6020808252600990820152683737ba1037bbb732b960b91b604082015260600190565b60208082526010908201526f1d5c9b08191bd95cdb9d08195e1a5cdd60821b604082015260600190565b60006020825282516020830152602083015160018060a01b0380821660408501528060408601511660608501526060850151915060e06080850152612c4a6101008501836127b6565b608086015160a08601528160a08701511660c086015260c086015160e086015280935050505092915050565b90815260200190565b9182526001600160a01b0316602082015260400190565b918252602082015260400190565b60008382526040602083015261273960408301846127f9565b60405181810167ffffffffffffffff81118282101715612cdc57600080fd5b604052919050565b600067ffffffffffffffff821115612cfa578081fd5b5060209081020190565b6001600160a01b03811681146122f257600080fdfea264697066735822122047f9c93000b50be99141a25e7147e9985f14b8981f0637e071d3ae6ee3a44c6264736f6c634300060a0033",
  "linkReferences": {},
  "deployedLinkReferences": {}
}